{"abi":[{"type":"constructor","inputs":[],"stateMutability":"nonpayable"},{"type":"receive","stateMutability":"payable"},{"type":"function","name":"MAX_AMOUNT","inputs":[],"outputs":[{"name":"","type":"uint256","internalType":"uint256"}],"stateMutability":"view"},{"type":"function","name":"addToWhitelist","inputs":[{"name":"user","type":"address","internalType":"address"}],"outputs":[],"stateMutability":"nonpayable"},{"type":"function","name":"claim","inputs":[],"outputs":[],"stateMutability":"nonpayable"},{"type":"function","name":"drainFaucet","inputs":[],"outputs":[],"stateMutability":"nonpayable"},{"type":"function","name":"lastClaimedAt","inputs":[{"name":"","type":"address","internalType":"address"}],"outputs":[{"name":"","type":"uint256","internalType":"uint256"}],"stateMutability":"view"},{"type":"function","name":"owner","inputs":[],"outputs":[{"name":"","type":"address","internalType":"address"}],"stateMutability":"view"},{"type":"function","name":"removeFromWhitelist","inputs":[{"name":"user","type":"address","internalType":"address"}],"outputs":[],"stateMutability":"nonpayable"},{"type":"function","name":"whitelisted","inputs":[{"name":"","type":"address","internalType":"address"}],"outputs":[{"name":"","type":"bool","internalType":"bool"}],"stateMutability":"view"},{"type":"event","name":"Claimed","inputs":[{"name":"user","type":"address","indexed":true,"internalType":"address"},{"name":"amount","type":"uint256","indexed":false,"internalType":"uint256"}],"anonymous":false},{"type":"event","name":"RemovedFromWhitelist","inputs":[{"name":"user","type":"address","indexed":true,"internalType":"address"}],"anonymous":false},{"type":"event","name":"Whitelisted","inputs":[{"name":"user","type":"address","indexed":true,"internalType":"address"}],"anonymous":false}],"bytecode":{"object":"0x6080604052348015600e575f5ffd5b50335f5f6101000a81548173ffffffffffffffffffffffffffffffffffffffff021916908373ffffffffffffffffffffffffffffffffffffffff160217905550610dde8061005b5f395ff3fe60806040526004361061007e575f3560e01c80638da5cb5b1161004d5780638da5cb5b14610119578063d40dc87014610143578063d936547e1461016d578063e43252d7146101a957610085565b80631923c6031461008957806326a40c991461009f5780634e71d92d146100db5780638ab1d681146100f157610085565b3661008557005b5f5ffd5b348015610094575f5ffd5b5061009d6101d1565b005b3480156100aa575f5ffd5b506100c560048036038101906100c09190610983565b61030c565b6040516100d291906109c6565b60405180910390f35b3480156100e6575f5ffd5b506100ef610321565b005b3480156100fc575f5ffd5b5061011760048036038101906101129190610983565b610574565b005b348015610124575f5ffd5b5061012d610725565b60405161013a91906109ee565b60405180910390f35b34801561014e575f5ffd5b50610157610749565b60405161016491906109c6565b60405180910390f35b348015610178575f5ffd5b50610193600480360381019061018e9190610983565b610755565b6040516101a09190610a21565b60405180910390f35b3480156101b4575f5ffd5b506101cf60048036038101906101ca9190610983565b610772565b005b5f5f9054906101000a900473ffffffffffffffffffffffffffffffffffffffff1673ffffffffffffffffffffffffffffffffffffffff163373ffffffffffffffffffffffffffffffffffffffff161461025f576040517f08c379a000000000000000000000000000000000000000000000000000000000815260040161025690610aba565b60405180910390fd5b5f4790505f81116102a5576040517f08c379a000000000000000000000000000000000000000000000000000000000815260040161029c90610b22565b60405180910390fd5b5f5f9054906101000a900473ffffffffffffffffffffffffffffffffffffffff1673ffffffffffffffffffffffffffffffffffffffff166108fc8290811502906040515f60405180830381858888f19350505050158015610308573d5f5f3e3d5ffd5b5050565b6001602052805f5260405f205f915090505481565b60025f3373ffffffffffffffffffffffffffffffffffffffff1673ffffffffffffffffffffffffffffffffffffffff1681526020019081526020015f205f9054906101000a900460ff166103aa576040517f08c379a00000000000000000000000000000000000000000000000000000000081526004016103a190610b8a565b60405180910390fd5b6202a30060015f3373ffffffffffffffffffffffffffffffffffffffff1673ffffffffffffffffffffffffffffffffffffffff1681526020019081526020015f20546103f69190610bd5565b421015610438576040517f08c379a000000000000000000000000000000000000000000000000000000000815260040161042f90610c52565b60405180910390fd5b5f6702c68af0bb14000047101561044f5747610459565b6702c68af0bb1400005b90505f811161049d576040517f08c379a000000000000000000000000000000000000000000000000000000000815260040161049490610cba565b60405180910390fd5b4260015f3373ffffffffffffffffffffffffffffffffffffffff1673ffffffffffffffffffffffffffffffffffffffff1681526020019081526020015f20819055503373ffffffffffffffffffffffffffffffffffffffff166108fc8290811502906040515f60405180830381858888f19350505050158015610522573d5f5f3e3d5ffd5b503373ffffffffffffffffffffffffffffffffffffffff167fd8138f8a3f377c5259ca548e70e4c2de94f129f5a11036a15b69513cba2b426a8260405161056991906109c6565b60405180910390a250565b5f5f9054906101000a900473ffffffffffffffffffffffffffffffffffffffff1673ffffffffffffffffffffffffffffffffffffffff163373ffffffffffffffffffffffffffffffffffffffff1614610602576040517f08c379a00000000000000000000000000000000000000000000000000000000081526004016105f990610aba565b60405180910390fd5b60025f8273ffffffffffffffffffffffffffffffffffffffff1673ffffffffffffffffffffffffffffffffffffffff1681526020019081526020015f205f9054906101000a900460ff1661068b576040517f08c379a000000000000000000000000000000000000000000000000000000000815260040161068290610d22565b60405180910390fd5b5f60025f8373ffffffffffffffffffffffffffffffffffffffff1673ffffffffffffffffffffffffffffffffffffffff1681526020019081526020015f205f6101000a81548160ff0219169083151502179055508073ffffffffffffffffffffffffffffffffffffffff167fcdd2e9b91a56913d370075169cefa1602ba36be5301664f752192bb1709df75760405160405180910390a250565b5f5f9054906101000a900473ffffffffffffffffffffffffffffffffffffffff1681565b6702c68af0bb14000081565b6002602052805f5260405f205f915054906101000a900460ff1681565b5f5f9054906101000a900473ffffffffffffffffffffffffffffffffffffffff1673ffffffffffffffffffffffffffffffffffffffff163373ffffffffffffffffffffffffffffffffffffffff1614610800576040517f08c379a00000000000000000000000000000000000000000000000000000000081526004016107f790610aba565b60405180910390fd5b60025f8273ffffffffffffffffffffffffffffffffffffffff1673ffffffffffffffffffffffffffffffffffffffff1681526020019081526020015f205f9054906101000a900460ff161561088a576040517f08c379a000000000000000000000000000000000000000000000000000000000815260040161088190610d8a565b60405180910390fd5b600160025f8373ffffffffffffffffffffffffffffffffffffffff1673ffffffffffffffffffffffffffffffffffffffff1681526020019081526020015f205f6101000a81548160ff0219169083151502179055508073ffffffffffffffffffffffffffffffffffffffff167faab7954e9d246b167ef88aeddad35209ca2489d95a8aeb59e288d9b19fae5a5460405160405180910390a250565b5f5ffd5b5f73ffffffffffffffffffffffffffffffffffffffff82169050919050565b5f61095282610929565b9050919050565b61096281610948565b811461096c575f5ffd5b50565b5f8135905061097d81610959565b92915050565b5f6020828403121561099857610997610925565b5b5f6109a58482850161096f565b91505092915050565b5f819050919050565b6109c0816109ae565b82525050565b5f6020820190506109d95f8301846109b7565b92915050565b6109e881610948565b82525050565b5f602082019050610a015f8301846109df565b92915050565b5f8115159050919050565b610a1b81610a07565b82525050565b5f602082019050610a345f830184610a12565b92915050565b5f82825260208201905092915050565b7f6f6e6c79206f776e65722063616e2063616c6c20746869732066756e6374696f5f8201527f6e00000000000000000000000000000000000000000000000000000000000000602082015250565b5f610aa4602183610a3a565b9150610aaf82610a4a565b604082019050919050565b5f6020820190508181035f830152610ad181610a98565b9050919050565b7f4e6f2066617563657420746f20647261696e00000000000000000000000000005f82015250565b5f610b0c601283610a3a565b9150610b1782610ad8565b602082019050919050565b5f6020820190508181035f830152610b3981610b00565b9050919050565b7f4e6f742077686974656c697374656400000000000000000000000000000000005f82015250565b5f610b74600f83610a3a565b9150610b7f82610b40565b602082019050919050565b5f6020820190508181035f830152610ba181610b68565b9050919050565b7f4e487b71000000000000000000000000000000000000000000000000000000005f52601160045260245ffd5b5f610bdf826109ae565b9150610bea836109ae565b9250828201905080821115610c0257610c01610ba8565b5b92915050565b7f436c61696d20636f6f6c646f776e3a207761697420666f7220322064617973005f82015250565b5f610c3c601f83610a3a565b9150610c4782610c08565b602082019050919050565b5f6020820190508181035f830152610c6981610c30565b9050919050565b7f46617563657420697320656d70747900000000000000000000000000000000005f82015250565b5f610ca4600f83610a3a565b9150610caf82610c70565b602082019050919050565b5f6020820190508181035f830152610cd181610c98565b9050919050565b7f41646472657373206e6f742077686974656c69737465640000000000000000005f82015250565b5f610d0c601783610a3a565b9150610d1782610cd8565b602082019050919050565b5f6020820190508181035f830152610d3981610d00565b9050919050565b7f4164647265737320616c72656164792077686974656c697374656400000000005f82015250565b5f610d74601b83610a3a565b9150610d7f82610d40565b602082019050919050565b5f6020820190508181035f830152610da181610d68565b905091905056fea2646970667358221220ff6d04d943c7fb2510c14c4bbf2b7f53521dca310f9f659761fa027299912bc364736f6c634300081d0033","linkReferences":{}},"methodIdentifiers":{"MAX_AMOUNT()":"d40dc870","addToWhitelist(address)":"e43252d7","claim()":"4e71d92d","drainFaucet()":"1923c603","lastClaimedAt(address)":"26a40c99","owner()":"8da5cb5b","removeFromWhitelist(address)":"8ab1d681","whitelisted(address)":"d936547e"},"id":0}